:10064E000C22000000000000000000000000013B32
:10065E0000083CD5330701000000000932D53308ED
:10066E00020100000000C184042E000000000121E0
:01067E00007B
:0507B200C2B5C2B42233
:1004E600C2A5D2A6C2C5D2A7C282D283C285D286EF
:1004F60075BA80AE30AF3190FF00EEF0A3EFF0900A
:10050600FF10EEF0A3EFF090FF20EEF0A3EFF090D7
:0F051600FF30EEF0A3EFF053BA7FD2B5D2B4228C
:10052500D2A5C2A6D2C5C2A7D282C283D285C286AF
:1005350075BA80AE30AF3190FF00EEF0A3EFF090CA
:10054500FF10EEF0A3EFF090FF20EEF0A3EFF09098
:0F055500FF30EEF0A3EFF053BA7FD2B5D2B4224D
:10056400C2A5D2A6D2C5C2A7C282D283D285C28670
:1005740075BA80AE30AF3190FF00EEF0A3EFF0908B
:10058400FF10EEF0A3EFF090FF20EEF0A3EFF09059
:0F059400FF30EEF0A3EFF053BA7FD2B5D2B4220E
:1005A300D2A5C2A6C2C5D2A7D282C283C285D28631
:1005B30075BA80AE30AF3190FF00EEF0A3EFF0904C
:1005C300FF10EEF0A3EFF090FF20EEF0A3EFF0901A
:0F05D300FF30EEF0A3EFF053BA7FD2B5D2B422CF
:1006DB008F08E4FCFDFE7B14FAF9F81200F1E42F0D
:1006EB00FFEE3408FEE43DFDE43C8F318E308D2F60
:0606FB00F52EE4F50822D3
:0307BC008F9922F0
:0606AE007B007A007922B6
:0606B4008B148A15891663
:1006BA00E4FFFEED14FCEFC39C5013AB14AA15A97A
:1006CA00168F8275830012008E2EFE0F80E5AF060C
:0106DA0022FD
:100723008F08AD081206AE74212508F8E66F600243
:04073300C322D322E8
:08061C008B148A1589168D1755
:10062400E4F518E518C39517501FAB14AA15A916BD
:1006340085188275830012008EF5AD53ACFD7F14CE
:090644007E00120026051880DA80
:01064D00228A
:10045900E4F5087522D5752333E52524FE601304D8
:10046900701E3001047F0080027F018F2775080705
:10047900800E7524081203AE8F27752800750808A9
:10048900AD081206AE74212508F8A6077B007A008C
:070499007922AD0802061CE8
:10034D00D200E4FFE52524FE604F047051E526142C
:10035D00601514601714601914601B14601D2405BA
:10036D0070301207B2802D1204E6802812056480C9
:10037D00231205A3801E1205258019AF27EFC39404
:10038D0001400BEFD3946450051206DB8006C200CA
:10039D008002C2003000098000D201020459C2005F
:0103AD00222D
:1002D500E53B7009F521EF64FE706C8011E53B6428
:1002E500017018BFAB028006BFFE0EE4F53BAE3BC6
:1002F500053B74222EF8A607228011E53BB4021DAA
:10030500EFD394075006EFC394075004E4F53B225E
:10031500AE3B053B74222EF8EFF6F52122E53BC3F3
:1003250095215023AE3B053B74222EF8A607E53BED
:10033500C395214012E4F53BAF211207234005C2C6
:070345000102045912034DEF
:01034C00228E
:0300230002079C35
:0B079C00309802C298309902C29932D6
:03008B0002040567
:10040500C0E0C0F0C083C082C0D075D000C000C0BD
:0D04150001C002C003C004C005C006C0073E
:10042200C204E5AC30E00DAEADAF061207BC12025D
:0C043200D553ACFEE5AC30E10353ACFD4B
:10043E00D007D006D005D004D003D002D001D00012
:0B044E00D0D0D082D083D0F0D0E032BC
:10075F0075985075D7D075D6FF758E14438E0122BC
:07001A0075AC1075AF082260
:10019500C2B5C2B4C2A5D2A6C282D28353940F53AC
:1001A500930F53923F53913F53966153956153B2C9
:1001B5007F53B17F53B4D353B3D375BA80C2B7C29B
:1001C500A1C2A2C2A390FFF2E4F0A3F090FFF2C097
:1001D50083C082E0FFA3E0D082D083CFF0A3EFF00D
:1001E50090FFF07410F0A3E4F090FF007410F0A3FA
:1001F500E4F0A3F0A3F0A3F0A3F090FF107410F0C7
:10020500A3E4F0A3F0A3F0A3F0A3F090FF207410F3
:10021500F0A3E4F0A3F0A3F0A3F0A3F090FF3074F3
:1002250010F0A3E4F0A3F0A3F0A3F0A3F0F5F1F52B
:10023500F675F50F43F58053BA7FF531753010F536
:040245002FF52E2241
:0100210022BC
:10073700E4F59712075F12001A120195120021D2F1
:04074700ACD2AF225F
:1004A0001207377F057E00120003C2AF1203AE8E23
:1004B000128F13E512FF8F378513387B007A00798E
:1004C000327D081206B48F39D2AF7B007A007932C0
:1004D00012061CE512FF3395E01207BC1207A7AF06
:0604E000131207BC80BDF1
:100003008E148F15E5151515AE14700215144E6078
:060013000512076F80EEEC
:0100190022C4
:040026008E198F1A86
:10002A007C007D641200BB8E1B8F1CE51C151CAE68
:10003A001B7002151B4E600512078D80EEAE19AFBC
:10004A001A7C007D0A1200BB8E1B8F1CE51C151C36
:10005A00AE1B7002151B4E600512077E80EEAE19AC
:10006A00AF1A7C007D0A1200BB8C1B8D1CE51C1587
:0F007A001CAE1B7002151B4E60051207A780EE0F
:010089002254
:0E076F0000007F557E0C7D9BDDFEDEFCDFFA78
:01077D002259
:0A07A70000007F167E80DEFEDFFCFE
:0107B1002225
:0E077E0000007F017ED87D23DDFEDEFCDFFA69
:01078C00224A
:0E078D0000007F097E687D8BDDFEDEFCDFFA5A
:01079B00223B
:0407B7007F03DFFEDF
:0107BB00221B
:10074B00AD07AC06ED1DAE0470011C4E6005120723
:04075B00B780F12250
:10070100C203C2907FBC7E0212074BD2907F467E0D
:100711000012074BA29092037F2C7E0112074BA27D
:0107210003D4
:0107220022B4
:1005E200E4F517F518F517E518C313F518C2907F4F
:1005F200017E0012074BD2907F087E0012074B301B
:10060200900543188080007F377E0012074B051744
:09061200E517C3940840D0AF18AD
:01061B0022BC
:020680008F17D2
:10068200E4F518F518C290E5171392907F3C7E00AE
:1006920012074BD2907F037E0012074BE517C3135C
:0B06A200F5170518E518C3940840DAAE
:0106AD00222A
:1003AE007514031207015003D514F8E5147002807A
:1003BE00207514037FCC1206807F441206807FD0F6
:1003CE007E021200261207015003D514F8E51470B0
:1003DE00047E80FF227FCC1206807FBE1206801222
:1003EE0005E27515008F161205E2EFFEEE421512AC
:0603FE000701AE15AF1669
:0104040022D5
:03000000020249B0
:0C024900787FE4F6D8FD75814302029036
:10008E00BB010CE58229F582E5833AF583E0225027
:10009E0006E92582F8E622BBFE06E92582F8E22271
:0D00AE00E58229F582E5833AF583E493228B
:1000BB00C2D5EC30E709B2D5E4C39DFDE49CFCEE60
:1000CB0030E715B2D5E4C39FFFE49EFE120140C397
:1000DB00E49DFDE49CFC800312014030D507C3E492
:0600EB009FFFE49EFE22CF
:1000F100E88FF0A4CC8BF0A42CFCE98EF0A42CFCAE
:100101008AF0EDA42CFCEA8EF0A4CDA8F08BF0A42B
:100111002DCC3825F0FDE98FF0A42CCD35F0FCEB8A
:100121008EF0A4FEA9F0EB8FF0A4CFC5F02ECD394F
:0F013100FEE43CFCEAA42DCE35F0FDE43CFC22BC
:100255000204A0E493A3F8E493A34003F68001F21B
:1002650008DFF48029E493A3F85407240CC8C333AA
:10027500C4540F4420C8834004F456800146F6DF79
:10028500E4800B010204081020408090064EE47EB5
:10029500019360BCA3FF543F30E509541FFEE4936E
:1002A500A360010ECF54C025E060A840B8E493A335
:1002B500FAE493A3F8E493A3C8C582C8CAC583CA60
:1002C500F0A3C8C582C8CAC583CADFE9DEE780BE18
:01067F00007A
:10014000BC000BBE0029EF8DF084FFADF022E4CCA3
:10015000F875F008EF2FFFEE33FEEC33FCEE9DEC6C
:10016000984005FCEE9DFE0FD5F0E9E4CEFD22EDB2
:10017000F8F5F0EE8420D21CFEADF075F008EF2FFC
:10018000FFED33FD4007985006D5F0F222C398FDED
:050190000FD5F0EA228A
:00000001FF
